:020000040800F2
:10000000B80A002025020008F5030008ED030008E7
:10001000F1030008C1030008F50400080000000017
:10002000000000000000000000000000F9030008CC
:10003000C503000800000000F7030008FB030008E8
:100040003F0200083F0200083F0200083F0200088C
:100050003F0200083F020008C90300083F020008F1
:100060003F0200083F0200083F0200083F0200086C
:100070003F0200083F0200083F0200083F0200085C
:100080003F0200083F0200083F0200083F0200084C
:100090003F0200083F0200083F0200083F0200083C
:1000A0003F0200083F0200083F0200083F0200082C
:1000B0003F0200083F0200083F0200083F0200081C
:1000C0003F0200083F0200083F0200083F0200080C
:1000D0003F0200086D0400083F0200083F020008CC
:1000E0003F0200083F0200083F0200083F020008EC
:1000F0003F0200083F0200083F0200083F020008DC
:100100003F0200083F0200083F0200083F020008CB
:100110003F0200083F0200083F0200083F020008BB
:100120003F0200083F0200083F0200083F020008AB
:100130003F0200083F0200083F0200083F0200089B
:1001400000000000000000000000000000000000AF
:100150003F0200083F0200083F0200083F0200087B
:100160003F0200083F0200083F0200083F0200086B
:100170003F0200083F0200083F0200083F0200085B
:100180003F02000800F002F800F03CF80AA090E8F6
:10019000000C82448344AAF10107DA4501D100F042
:1001A00031F8AFF2090EBAE80F0013F0010F18BFD3
:1001B000FB1A43F001031847281A0000481A0000F0
:1001C000103A24BF78C878C1FAD8520724BF30C883
:1001D00030C144BF04680C60704700000023002455
:1001E00000250026103A28BF78C1FBD8520728BF47
:1001F00030C148BF0B6070471FB501F0CFFC1FBD79
:1002000010B510BD00F0AAF81146FFF7F5FF01F098
:1002100001FA00F0C8F803B4FFF7F2FF03BC00F0E6
:100220006BF900000948804709480047FEE7FEE7F0
:10023000FEE7FEE7FEE7FEE7FEE7FEE7FEE7FEE796
:1002400004480549054A064B70470000FD030008B5
:1002500085010008B8040020B80A0020B806002074
:10026000B80600207047032A40F2308010F0030CDB
:1002700000F0158011F8013BBCF1020F624498BFF9
:1002800011F801CB00F8013B38BF11F8013BA2F196
:10029000040298BF00F801CB38BF00F8013B11F011
:1002A000030300F02580083AC0F0088051F8043BB1
:1002B000083A51F804CBA0E80810F5E7121D5CBF1E
:1002C00051F8043B40F8043BAFF30080D20724BF51
:1002D00011F8013B11F801CB48BF11F8012B24BFE5
:1002E00000F8013B00F801CB48BF00F8012B704734
:1002F00010B5203AC0F00B80B1E81850203AA0E8C1
:100300001850B1E81850A0E81850BFF4F5AF5FEAF4
:10031000027C24BFB1E81850A0E8185044BF18C9A7
:1003200018C0BDE810405FEA827C24BF51F8043B4E
:1003300040F8043B08BF7047D20728BF31F8023BA2
:1003400048BF11F8012B28BF20F8023B48BF00F836
:10035000012B70477047704770477047754600F033
:100360002BF8AE4605006946534620F00700854647
:1003700018B020B5FFF764FFBDE820404FF000063D
:100380004FF000074FF000084FF0000B21F007017D
:10039000AC46ACE8C009ACE8C009ACE8C009ACE8C0
:1003A000C0098D46704710B50446AFF30080204663
:1003B000BDE81040FFF72FBF0048704754040020ED
:1003C00000BFFEE77047000000B5A1B07D2201A983
:1003D000054801F0CDF97D2101A801F0ADFB00F049
:1003E0003DF921B000BD000000F80F0800BFFEE796
:1003F00000BFFEE7704770477047704718480068B5
:1004000040F47000164908601648006820F00100AA
:10041000401C1449086000BF12480068C0F3400047
:100420000028F9D00F48406820F003000D494860CB
:1004300000BF0C484068C0F381000028F9D109488A
:1004400000680949084007490860002048600863BF
:100450004FF41F008860C803014980390860704765
:1004600088ED00E000100240FFFFF2FE10B51C48CE
:100470000068C0F3401088B3202119480C3801F0FF
:10048000C6FA58B30020174908701748006840F2B0
:100490000121B0FBF1F201FB120013490860104882
:1004A0000C3801F0A7FAC1B20F480468601C0E4A6C
:1004B00010600E48015510460068401E0B49085C4C
:1004C000C0280BD1002011460860012005490870A2
:1004D0000748006810B106480068804710BD00005A
:1004E0000C380140100000200C00002051020020B8
:1004F0001400002000BFFEE700BF704710B500F0F9
:10050000B9FB002000F030F8012000F02DF80220A7
:1005100000F02AF8002000F04FF8012000F04CF81D
:10052000022000F049F800F001F810BD1CB50121CF
:100530000B4800F0A9FA684600F01CFE01208DF877
:10054000070000208DF804008DF8060001200090BF
:1005500028208DF805006946024800F069FE1CBDA0
:1005600002001800000801401CB504460F4951F86C
:100570002400012100F088FA684600F0FBFD01200C
:100580008DF8070000208DF8040010208DF806007B
:10059000074830F81400009004208DF80500054944
:1005A00051F82400694600F043FE1CBD30000020D5
:1005B000280000201C000020022800DD70470649AA
:1005C00031F8101031B1044931F81010034A52F8D3
:1005D0002020116100BFF1E7280000201C0000204E
:1005E000022800DD7047094931F8101059B1084957
:1005F00051F82010C968054A32F810205140044AC9
:1006000052F82020D16000BFECE700002800002055
:100610001C0000200EB501214FF4C01000F034FA88
:100620000021084600F0B2FD684600F079FB012089
:100630008DF8090000208DF80000012001900020B5
:100640008DF80800684600F083FB032001F07CF879
:1006500000221146062001F013F80EBD10B56420EB
:1006600000F024FB012000F063FB0121074800F0AB
:1006700033FE012809D106480078012802D1044937
:10068000087002E001200249087010BD0008014016
:100690000000002010B50121054800F0F5F900F038
:1006A000B7F840F214714FF0006000F09FF810BDF1
:1006B0000600140010B5044600F0E4FC204600F0EB
:1006C00039FC00F027FC10BD10B5024800F004F81A
:1006D00010BD0000311300081CB5044601212D484F
:1006E00000F0D2F901212B480C3800F0CDF9684612
:1006F00000F040FD01208DF8070000208DF8040077
:1007000008208DF806008001009004208DF8050077
:100710006946214800F08CFD01208DF8070000207B
:100720008DF804008DF806004FF4806000901820CA
:100730008DF805006946184800F07AFD00231A4636
:100740004FF4E131154801F06BF90121134801F034
:10075000CBF90121114801F0C2F9012210490F48DB
:1007600001F0A2F900220E49891C0C4801F09CF905
:1007700001210A4801F046F9032000F0E5FF0022BC
:100780001146252000F07CFF064804600020064941
:1007900008701CBD0E001800000801400038014020
:1007A00005000C00140000200400002030B50246B3
:1007B0000C46FF210AB9002030BD10E012F8010BF1
:1007C0004140002309E001F0800018B1312080EAA7
:1007D000410000E04800C1B25B1C082BF3D3201E8F
:1007E000A4F10104EAD10846E6E7000010B502468C
:1007F0000B46002100BF04E052F82100034C2060AA
:10080000491C9942F8D30148006810BD00300240ED
:100810000348806820F00100401C0149886070474F
:10082000003002400349496860F30711014A5160F2
:1008300070470000001002400349496860F30A2134
:10084000014A5160704700000010024003494968A6
:1008500060F3CD21014A5160704700000010024052
:10086000012807D10749496D21F030013031054A8F
:10087000516505E00349496D21F03001014A516598
:100880007047000000100240052827D2DFE800F082
:10089000030A11181F00134A126861F30002114B7A
:1008A0001A601CE00F4A126861F310420D4B1A6087
:1008B00015E00C4A126861F318620A4B1A600EE0E8
:1008C000084A126A61F30002064B1A6207E0054A01
:1008D000526A61F30002034B5A6200E000BF00BF9E
:1008E00070470000001002402DE9F041014600274A
:1008F0000022002590460023002400F06FF90646F0
:1009000026B1012E12D0022E43D112E03948406D9B
:10091000C0F3402038B13748006BC0F3406010B1DD
:100920003548086001E03548086035E03348086024
:1009300032E030484068C0F300482E484068C0F3B9
:1009400083422C484068C0F341750DB90F2A03D18A
:100950002801401C024400E0921CB8F1000F03D1B2
:1009600027485043086013E022484068C0F34040E5
:1009700058B12048406DC0F30137B81CDFF87CC087
:10098000BCFBF0F05043086002E01C485043086094
:1009900002E01A48086000BF00BF16484068C0F374
:1009A00003131848C45C0868E04048601148406878
:1009B000C0F302231448C45C4868E040C8600D4896
:1009C0004068C0F3C2231148C45C4868E0408860B6
:1009D00008484068C0F3007306484068C0F381309F
:1009E00040EA83030A48C45C8868B0FBF4F00861FD
:1009F000BDE8F08100100240006CDC0200127A00B9
:100A000000093D00A61B0008B61B0008BE1B00081D
:100A1000C61B000810B501460020094B03EB11422C
:100A2000126801F01F040123A3401A4001F01F04C3
:100A30000123A3409A4200D000E0012010BD000035
:100A4000001002400349496D60F30D31014A5165C0
:100A5000704700000010024030B50024002500E07F
:100A6000641C1120FFF7D6FF012802D0B4F5405FC7
:100A7000F6D31120FFF7CEFF012801D0002500E0BA
:100A80000125284630BD000010B501290DD10E4BBF
:100A900003EB1042126800F01F040123A3401A4325
:100AA000094C04EB10431A600CE0074B03EB1042B7
:100AB000126800F01F040123A3409A43024C04EB88
:100AC00010431A6010BD00000010024010B568B954
:100AD0001C4B5B6823F480331A4C636023461B6B0A
:100AE00023F0007303F10073236317E0154B5B6879
:100AF00023F4803303F58033124C6360012805D161
:100B000023465B6823F40033636007E00D4B5B68AA
:100B100023F4003303F500330A4C6360094B5B6830
:100B200061F39543074C63600C09064B5B6864F303
:100B30005E73044C636023465B6862F3DF7363603B
:100B400010BD0000001002401348006820F00100B2
:100B5000401C1149086000BF0F480068C0F3400006
:100B60000028F9D00C48406820F003000A4948608A
:100B700000BF09484068C0F381000028F9D1064849
:100B8000006806490840044908600020486008637E
:100B90004FF41F008860704700100240FFFFF2FE14
:100BA0000D49496860F301010B4A516000BF00BF65
:100BB00000BF00BF00BF00BF00BF00BF00BF00BF3D
:100BC00000BF00BF00BF00BF00BF00BF00BF00BF2D
:100BD00000BF00BF7047000000100240024840689C
:100BE000C0F38100704700000010024070B502465B
:100BF000002030E0135CC02B02D0DB2B20D10FE0B3
:100C0000DB251A4C23685C1C184E3460184CE554E4
:100C1000DC25344623685C1C3460154CE55418E030
:100C2000DB25124C23685C1C104E3460104CE554DC
:100C3000DD25344623685C1C34600D4CE55408E027
:100C4000155C0A4C23685C1C084E3460084CE55463
:100C500000BF00BF401C8842CCD3C025034C236892
:100C60005C1C024E3460024CE55470BD080000204C
:100C70005000002010B5042000F0A8FE07480068CE
:100C80000749B0FBF1F007490860084600684FF4D7
:100C90007A7148430449086010BD00004C000020F0
:100CA00040420F003C00002040000020002131E0C5
:100CB00032280ADD194A126832235A434FF0E023E2
:100CC0005A61A0F1320290B206E0144A126842431F
:100CD0004FF0E0235A61002000224FF0E0239A6198
:100CE0001A46126942F001021A6100BF4FF0E02279
:100CF000116901F001021AB101F48032002AF5D025
:100D00004FF0E022126922F001024FF0E0231A6155
:100D100000229A610028CBD17047000040000020DB
:100D20000021417241600121017201707047000091
:100D3000064909680140814204D10449091D08603F
:100D4000086002E00149091D086070471004014075
:100D5000014600204868234A12688243214B1A60EA
:100D60001A1D126882431B1D1A604A7A0AB30A7858
:100D70002AB91A1F126802431B1F1A6006E0194A9B
:100D8000121D12680243174B1B1D1A60154A0832C8
:100D900012688243134B08331A601A1D126882438B
:100DA0001B1D1A600A7A2AB91A1F126802431B1FF8
:100DB0001A6016E00A7A012A07D10A4A0C32126830
:100DC0000243084B0C331A600BE0064A08321268E3
:100DD0000243044B08331A601A1D126802431B1D9C
:100DE0001A6070470004014003200B49C96801F0F4
:100DF000010109B100200EE00749C968C1F3800173
:100E000009B1012007E00449C968C1F3001109B123
:100E1000022000E0032070470020024000B5024697
:100E20000323FFF7E1FF034603E0FFF7DDFF03467F
:100E3000521E0BB9002AF8D102B90423184600BD8E
:100E400003200B49C96C01F0010109B100200EE03B
:100E50000749C96CC1F3800109B1012007E00449C9
:100E6000C96CC1F3001109B1022000E003207047F2
:100E70000020024000B502460323FFF7E1FF0346CE
:100E800003E0FFF7DDFF0346521E0BB9002AF8D13D
:100E900002B90423184600BD70B504460D4603266A
:100EA000B4F1006F16D31948844213D8184800696A
:100EB00020F00100401C1649086125704FF4801095
:100EC000FFF7ACFF06461248006920F00100104908
:100ED000086119E00D48401C844215D3B4F1016F3C
:100EE00012D20B48006D20F00100401C0849086533
:100EF00025704FF48010FFF7BDFF06460448006DD3
:100F000020F0010002490865304670BDFFFF070868
:100F1000002002400648006920F08000803004492B
:100F200008610846006D20F0800080300865704739
:100F30000020024030B504460325B4F1006F1BD3F6
:100F40003248844218D83248006920F00200801CE0
:100F50002F49086108464461006920F04000403094
:100F600008614804FFF75AFF05462948006920F048
:100F700002002749086146E02448401C84421BD3F4
:100F8000B4F1016F18D22248006D20F00200801CDD
:100F90001F49086508464465006D20F04000403058
:100FA00008654804FFF766FF05461948006D20F004
:100FB00002001749086526E0B4F1046F23D31448F2
:100FC0009030006820F00200801C1149C1F89000A8
:100FD0000846C0F894400E489030006820F0400069
:100FE00040300B49903108604FF0FF3000F038F886
:100FF00005460748D0F8900020F0020004499031DF
:10100000086000F007F8284630BD0000FFFF070821
:10101000002002404FF00460006802480068024867
:1010200000687047001040080020400803200B496A
:10103000096801F0010109B100200EE007490968C3
:10104000C1F3800109B1012007E004490968C1F337
:10105000001109B1022000E0032070478C200240FB
:1010600000B502460323FFF7E1FF034603E0FFF765
:10107000DDFF0346521E0BB9002AF8D102B9042342
:10108000184600BD044805494860054848600248C4
:1010900048640348486470472301674500200240C4
:1010A000AB89EFCD70B504460D460326B4F1006F51
:1010B00016D32848844213D82748006920F001003D
:1010C000401C2549086125604FF48010FFF7A6FEFB
:1010D00006462148006920F001001F49086136E0FA
:1010E0001C48401C844216D3B4F1016F13D21A4835
:1010F000006D20F00100401C1749086525604FF481
:101100008010FFF7B7FE06461348006D20F001007F
:10111000114908651BE0B4F1046F18D30E489030F4
:10112000006820F00100401C0B49903108602560E8
:101130004FF48010FFF794FF06460748D0F8900060
:1011400020F001000449C1F89000FFF763FF30462A
:1011500070BD0000FFFF0708002002401CB5012100
:101160000348FFF791FC684600F004F81CBD00003E
:10117000020018004FF6FF710160002181710171BA
:10118000042141710121C1717047000010B5002296
:101190008B071C0F0F2303FA04F28B1033B1012BC2
:1011A00013D0022B20D0032B3CD12CE01F4B9B688B
:1011B00093431E4CA36023469B688C07240F00FAC0
:1011C00004F42343194CA3602DE0184BDB689343D0
:1011D000164CE3602346DB688C07240F00FA04F406
:1011E0002343124CE3601EE0104B1B6993430F4CEA
:1011F000236123461B698C07240F00FA04F4234360
:101200000A4C23610FE0094B5B699343074C636110
:1012100023465B698C07240F00FA04F42343034C34
:10122000636100E000BF00BF10BD0000000001408E
:10123000F0B50A461588ABB29579032D01D100248B
:101240001AE0957965B9557905F00F045579182D8F
:1012500001D1036110E05579282D0DD143610BE0D8
:10126000957905F00805167906F004063543D67918
:1012700006F0030645EA0604DDB2A5B1002110E040
:1012800001258D401D405DB105688F000F26BE40D1
:10129000B543056005688E0004FA06F6354305601F
:1012A000491C0829ECD3FF2B15DD1B12002110E08F
:1012B00001258D401D405DB145688F000F26BE4061
:1012C000B543456045688E0004FA06F6354345602F
:1012D000491C0829ECD3F0BD0246002093680B405E
:1012E0008B4200D000E001207047000070B504463A
:1012F0000D4D002614B100F075F908B9002070BD3D
:101300007C212846FFF752FA064695F87C00B04249
:1013100001D00020F3E77C2229462046FEF7A3FFF8
:10132000024804600120EAE700F80F0818000020D6
:1013300070B5A0B000267E252946684600F026FA42
:1013400005467E2D7ED19DF80000FF28FAD10DF1D3
:1013500001047C212046FFF729FA064694F87C0018
:10136000B04270D19D48FFF7A5F97D2221469B48E8
:1013700000F0BFFB012867D19948006800287CD0A5
:1013800020889749096808806088954909684880DD
:10139000A088934909688880E08891490968C880D5
:1013A00020898F490968088160898D4909684881C9
:1013B000A0898B4909688881E08989490968C881C1
:1013C000208A874909680882608A854909684882B5
:1013D000A08A834909688882E08A81490968C882AD
:1013E000207E7F4909680876E06900EE100A7C4893
:1013F000006880ED070A206A00EE100A784800684D
:1014000080ED080A606A00EE100A7548006880EDF9
:10141000090AA06A00EE100A7148006880ED0A0A05
:10142000E06A00EE100A6E48006880ED0B0A206B3F
:1014300000EE100A6A48006880ED0C0A606B00EE4E
:10144000100A02E0B2E0A8E0A3E06548006880ED81
:101450000D0AA06B00EE100A6148006880ED0E0ACC
:10146000E06B00EE100A5E48006880ED0F0A206C09
:1014700000EE100A5A48006800E086E080ED100A8D
:10148000606C00EE100A5648006880ED110AA06CEE
:1014900000EE100A5248006880ED120AE06C00EE7F
:1014A000100A4F48006880ED130A206D00EE100A04
:1014B0004B48006880ED140A606D00EE100A484841
:1014C000006880ED150AA06D00EE100A444800681F
:1014D00080ED160AE06D00EE100A4148006880EDCC
:1014E000170AB4F860003E490968A1F8600062205C
:1014F000015B3B480068A0F862106420015B38483B
:101500000068A0F864106620015B35480068A0F808
:1015100066106820015B32480068A0F868106A20F5
:10152000015B2F480068A0F86A10B4F86C002C49E1
:101530000968A1F86C006E20015B29480068A0F8DA
:101540006E107020015B26480068A0F870107220B1
:10155000015B23480068A0F872107420015B2048EA
:101560000068A0F874107620015B1D480068A0F8A0
:101570007610B4F878001A490968A1F8780094F850
:101580007A001749096881F87A00FF208DF8000079
:1015900006E000208DF8000002E000208DF8000039
:1015A0000121684600F0C8FA20B070BD012D0CD1B1
:1015B0009DF8000048B97D226946084800F0D8F837
:1015C0007D21684600F0B8FAEEE700208DF80000B3
:1015D0000121684600F0B0FA00BFE5E700F80F0807
:1015E0001800002070B5FFF755F804460848056854
:1015F00046683DB1204600F0DFF8012800D170BDFB
:101600000020FCE7A64201D10120F8E70020F6E720
:101610000000080800B59FB000F024F9FEF76EFF47
:10162000FEF7F8FFFFF79AFDFFF74EF86846FFF761
:101630005DFE18B94FF0FF301FB000BD1DE0002067
:10164000FEF7CEFF0D490978322211FB02F0FFF7B9
:101650002DFB0120FEF7C4FF08490978322211FB57
:1016600002F0FFF723FB0220FEF7BAFF03490978D7
:10167000322211FB02F0FFF719FBE0E70000002027
:101680002DE9F0470B4614464FF0000C00BF2C4AE2
:101690001268C2F302211D4626460A46C2F1070916
:1016A000B9F1040F02D94FF0040901E0C2F10709B2
:1016B000C84602F10409B9F1070F02D24FF0000940
:1016C00001E0A2F103094F464FF0010909FA08F9B8
:1016D000A9F1010909EA050909FA07F94FF0010A18
:1016E0000AFA07FAAAF1010A0AEA060A49EA0A0905
:1016F000CC4601466246002904DB15072E0E114D2B
:101700006E5407E015072F0E0D4D0C3501F00F0636
:10171000361FAF5500BF014600290DDB00BF00BFDB
:1017200001F01F050122AA404D09AD0005F1E02599
:10173000C5F8002100BF00BF00BFBDE8F087000072
:101740000CED00E000E400E000BF00F00702064BF3
:1017500019684FF6FF031940044B0B4343EA02217B
:10176000014B196000BF70470CED00E00000FA0566
:1017700010B5034601B910BD002003E01C780C54DD
:101780005B1C401C9042F9D300BFF4E770B50446DF
:101790000D462CB10648007810B10648007808B113
:1017A000002070BD2946204600F024F8F9E700002B
:1017B000100000200400002070B505460124FFF74A
:1017C00061FC0B48FFF7B6FB00210948FFF76AFCF4
:1017D000044029460648001DFFF764FC044014B984
:1017E0000348FFF7A7FBFFF795FB204670BD0000FD
:1017F0000000080870B502460B460020002127E0D3
:10180000174C645CDB2C07D00C46491C144D2E5D34
:101810000446401C16551BE0491C0C46491C104D43
:101820002C5DDC2C02D0DD2C0AD104E0C02604465D
:10183000401C16550BE0DB260446401C165506E0FE
:101840004C1E074D2E5D0446401C165500BF00BFC0
:10185000034C645CC02C01D09842D1D370BD000011
:101860005102002010B5FFF76FF901210846FFF77C
:101870000BF800BFFFF7F0F80028FBD001223B2156
:101880000220FFF723F90020FFF7DCF801210220F6
:10189000FEF7FAFF00BF1920FFF7BCF80128FAD1C4
:1018A0000020FEF7BFFF0420FEF7D0FF0420FEF764
:1018B000C3FF0120FEF7D4FF0220FFF771F900BF3C
:1018C000FFF78CF90228FBD10020FEF7C9FF00F0DA
:1018D00001F810BD2DE9F04700260024002500275F
:1018E000A046A146FFF77AF98246BAF1000F06D06A
:1018F000BAF1010F15D0BAF1020F46D115E02D480B
:10190000406DC0F3402040B12A48006BC0F34060F6
:1019100018B129482949086002E029482749086088
:1019200037E027482549086033E022484068C0F383
:10193000004720484068C0F383441E484068C0F315
:1019400041750DB90F2C03D12801401C044400E05F
:10195000A41C27B91B4860431849086014E01548C7
:101960004068C0F3404058B11248406DC0F30136A2
:10197000B01C1349B1FBF0F060431049086003E06C
:101980000F4860430D49086003E00D480B490860AB
:1019900000BF00BF07484068C0F303180A4810F8AA
:1019A00008900648006820FA09F004490860BDE87C
:1019B000F087000000100240006CDC024C000020A8
:1019C00000127A0000093D00CE1B0008042808D14F
:1019D0004FF0E021096941F004014FF0E02211616C
:1019E00007E04FF0E021096921F004014FF0E02207
:1019F000116170470146486880B27047C1F3080220
:101A000042607047C26861F34D32C260704702465F
:101A10001068084008B1012070470020FCE7000072
:101A20002DE9F04385B004460F4690469946684636
:101A3000FEF75AFF1848844208D01848844205D05F
:101A40001748844202D01748844201D1029E00E028
:101A5000039E06EB86004000B0FBF7F50A20B5FBBD
:101A6000F0F100FB1150052803D20A20B5FBF0F578
:101A700003E00A20B5FBF0F0451CA06865F30F00F9
:101A8000A060E06868F30C30E060206969F30D3015
:101A9000206105B0BDE8F0830038014000600140DE
:101AA000006401400068014030B5012A0BD100EB11
:101AB00011431B6801F01F050124AC40234300EBD8
:101AC000114423600AE000EB11431B6801F01F057D
:101AD0000124AC40A34300EB1144236030BDC26835
:101AE00061F38202C2607047C26861F3C302C260E0
:101AF00070472DE9F04107460D4616464FF00308A2
:101B000015B90020BDE8F081FFF7BCFA00240DE014
:101B1000295D3846FFF7C0F98046B8F1030F03D0BE
:101B2000FFF7F8F90020EDE77F1C641CB442EFD307
:101B3000FFF7F0F90120E5E770B506460C460025F1
:101B400016B11248007808B1002070BDB4F5807F4E
:101B500001D94FF4807421463046FFF747F80CE076
:101B600000BF80210A48FFF752FF0028F9D009483A
:101B7000415D0748FFF742FF6D1C0748006885423A
:101B8000EED30020044908602046DEE70400002070
:101B90000038014050000020080000204FF0407045
:101BA000E1EE100A70470000000000000000010292
:101BB00003040607080900000000010203040000F6
:101BC00000000102030402040608020C08100000D1
:101BD00000000000000001020304060708090000DD
:101BE000001C00080000002050000000C001000898
:101BF000501C000850000020680A0000DC010008AA
:101C000001000000010000000000000000000000D2
:101C1000000000000000000000000000001401406F
:101C2000001401400014014000200040008000002A
:101C3000050018000500180005001800000000004D
:101C400000000000000000000100000000127A0007
:040000050800018569
:00000001FF
