:020000040800F2
:10000000A00600202502000805030008FD020008E4
:1000100001030008D50200082904000800000000C0
:1000200000000000000000000000000009030008BC
:10003000D902000800000000070300080B030008B5
:100040003F0200083F0200083F0200083F0200088C
:100050003F0200083F020008DD0200083F020008DE
:100060003F0200083F0200083F0200083F0200086C
:100070003F0200083F0200083F0200083F0200085C
:100080003F0200083F0200083F0200083F0200084C
:100090003F0200083F0200083F0200083F0200083C
:1000A0003F0200083F0200083F0200083F0200082C
:1000B0003F0200083F0200083F0200083F0200081C
:1000C0003F0200083F0200083F0200083F0200080C
:1000D0003F0200087D0300083F0200083F020008BD
:1000E0003F0200083F0200083F0200083F020008EC
:1000F0003F0200083F0200083F0200083F020008DC
:100100003F0200083F0200083F0200083F020008CB
:100110003F0200083F0200083F0200083F020008BB
:100120003F0200083F0200083F0200083F020008AB
:100130003F0200083F0200083F0200083F0200089B
:1001400000000000000000000000000000000000AF
:100150003F0200083F0200083F0200083F0200087B
:100160003F0200083F0200083F0200083F0200086B
:100170003F0200083F0200083F0200083F0200085B
:100180003F02000800F002F800F03CF80AA090E8F6
:10019000000C82448344AAF10107DA4501D100F042
:1001A00031F8AFF2090EBAE80F0013F0010F18BFD3
:1001B000FB1A43F00103184760130000801300008E
:1001C000103A24BF78C878C1FAD8520724BF30C883
:1001D00030C144BF04680C60704700000023002455
:1001E00000250026103A28BF78C1FBD8520728BF47
:1001F00030C148BF0B6070471FB501F06BF91FBDE0
:1002000010B510BD00F033F81146FFF7F5FF00F010
:10021000E7FE00F051F803B4FFF7F2FF03BC00F073
:1002200005F900000948804709480047FEE7FEE756
:10023000FEE7FEE7FEE7FEE7FEE7FEE7FEE7FEE796
:1002400004480549054A064B704700000D030008A5
:1002500085010008A0000020A0060020A0020020C8
:10026000A00200207047704770477047704775467E
:1002700000F02CF8AE4605006946534620F0070012
:10028000854618B020B5FFF7DBFFBDE820404FF0F2
:1002900000064FF000074FF000084FF0000B21F070
:1002A0000701AC46ACE8C009ACE8C009ACE8C0093D
:1002B000ACE8C0098D46704710B50446AFF3008026
:1002C0002046BDE81040FFF7A6BF00000048704779
:1002D0004000002000BFFEE7704700001FB500F09F
:1002E00057F910226946044800F01CFF10216846A7
:1002F00001F0DAF81FBD000000F80F0800BFFEE7AC
:1003000000BFFEE7704770477047704718480068A5
:1003100040F47000164908601648006820F001009B
:10032000401C1449086000BF12480068C0F3400038
:100330000028F9D00F48406820F003000D494860BC
:1003400000BF0C484068C0F381000028F9D109487B
:1003500000680949084007490860002048600863B0
:100360004FF41F008860C803014980390860704756
:1003700088ED00E000100240FFFFF2FE00B587B0FC
:10038000002002907F200190009000222349244801
:1003900001F03EF8012101A800F0D0FE9DF8040014
:1003A000FF281ED1102103A800F0C8FE012102A8D9
:1003B00000F0C4FE102103A800F00CF99DF808100D
:1003C000884207D1102203A9164801F047F8FF2000
:1003D000009001E0002000900121684601F064F8DF
:1003E00014E09DF8040088B9102203A90D4800F01C
:1003F00099FE102103A800F0EDF80290102103A847
:1004000001F052F8012102A801F04EF8012203493F
:10041000034800F0FDFF07B000BD000005000C0020
:100420000038014000F80F0800BFFEE700BF70472A
:1004300010B500F0CFFA002000F030F8012000F0F5
:100440002DF8022000F02AF8002000F04FF80120DB
:1004500000F04CF8022000F049F800F001F810BD5F
:100460001CB501210B4800F003FA684600F0FCFCC3
:1004700001208DF8070000208DF804008DF806009B
:100480000120009028208DF805006946024800F000
:1004900049FD1CBD02001800000801401CB50446BF
:1004A0000F4951F82400012100F0E2F9684600F0FC
:1004B000DBFC01208DF8070000208DF804001020DF
:1004C0008DF80600074830F81400009004208DF8DD
:1004D0000500054951F82400694600F023FD1CBDC4
:1004E00020000020180000200C000020022800DD61
:1004F0007047064931F8101031B1044931F8101035
:10050000034A52F82020116100BFF1E718000020D3
:100510000C000020022800DD7047094931F8101056
:1005200059B1084951F82010C968054A32F810201D
:100530005140044A52F82020D16000BFECE700008F
:10054000180000200C0000200EB501214FF4C0104F
:1005500000F08EF90021084600F092FC684600F099
:100560008FFA01208DF8090000208DF8000001208D
:10057000019000208DF80800684600F099FA0320E9
:1005800000F0BCFD00221146062000F053FD0EBD18
:1005900010B5322000F03AFA012000F079FA01217A
:1005A000074800F013FD012809D10648007801280A
:1005B00002D10449087002E001200249087010BD10
:1005C000000801400900002010B500F01BFC00F0FD
:1005D00093FE10BD30B502460B46FF2010E012F826
:1005E000014B6040002109E000F080041CB131247F
:1005F00084EA400400E04400E0B2491C0829F3D337
:100600001C1EA3F10103EAD130BD00000349496873
:1006100060F30711014A516070470000001002406A
:100620000349496860F30A21014A5160704700009C
:10063000001002400349496860F3CD21014A51602E
:100640007047000000100240012807D10749496D9A
:1006500021F030013031054A516505E00349496D0B
:1006600021F03001014A516570470000001002403E
:10067000052827D2DFE800F0030A11181F00134AEB
:10068000126861F30002114B1A601CE00F4A1268F5
:1006900061F310420D4B1A6015E00C4A126861F3C9
:1006A00018620A4B1A600EE0084A126A61F30002EF
:1006B000064B1A6207E0054A526A61F30002034BD7
:1006C0005A6200E000BF00BF704700000010024007
:1006D0002DE9F04101460027002200259046002325
:1006E000002400F06FF9064626B1012E12D0022E2A
:1006F00043D112E03948406DC0F3402038B137484B
:10070000006BC0F3406010B13548086001E0354827
:10071000086035E03348086032E030484068C0F394
:1007200000482E484068C0F383422C484068C0F31C
:1007300041750DB90F2A03D12801401C024400E085
:10074000921CB8F1000F03D127485043086013E012
:1007500022484068C0F3404058B12048406DC0F383
:100760000137B81CDFF87CC0BCFBF0F050430860D8
:1007700002E01C485043086002E01A48086000BFCD
:1007800000BF16484068C0F303131848C45C0868EB
:10079000E040486011484068C0F302231448C45C3C
:1007A0004868E040C8600D484068C0F3C223114863
:1007B000C45C4868E040886008484068C0F3007343
:1007C00006484068C0F3813040EA83030A48C45CAD
:1007D0008868B0FBF4F00861BDE8F08100100240C9
:1007E000006CDC0200127A0000093D00DE140008F3
:1007F000EE140008F6140008FE14000810B50146B7
:100800000020094B03EB1142126801F01F04012381
:10081000A3401A4001F01F040123A3409A4200D0D4
:1008200000E0012010BD0000001002400349496DA6
:1008300060F30D31014A516570470000001002401D
:1008400030B50024002500E0641C1120FFF7D6FF1E
:10085000012802D0B4F5405FF6D31120FFF7CEFF98
:10086000012801D0002500E00125284630BD000008
:1008700010B501290DD10E4B03EB1042126800F0A8
:100880001F040123A3401A43094C04EB10431A60D0
:100890000CE0074B03EB1042126800F01F04012329
:1008A000A3409A43024C04EB10431A6010BD0000B1
:1008B0000010024010B568B91C4B5B6823F480330C
:1008C0001A4C636023461B6B23F0007303F1007323
:1008D000236317E0154B5B6823F4803303F5803303
:1008E000124C6360012805D123465B6823F4003372
:1008F000636007E00D4B5B6823F4003303F50033BE
:100900000A4C6360094B5B6861F39543074C636075
:100910000C09064B5B6864F35E73044C636023460A
:100920005B6862F3DF73636010BD0000001002407B
:100930001348006820F00100401C1149086000BF06
:100940000F480068C0F340000028F9D00C48406808
:1009500020F003000A49486000BF09484068C0F31E
:1009600081000028F9D1064800680649084004497A
:1009700008600020486008634FF41F0088607047DB
:1009800000100240FFFFF2FE0D49496860F30101CB
:100990000B4A516000BF00BF00BF00BF00BF00BFD7
:1009A00000BF00BF00BF00BF00BF00BF00BF00BF4F
:1009B00000BF00BF00BF00BF00BF00BF7047000006
:1009C0000010024002484068C0F3810070470000F8
:1009D0000010024010B5042000F07AFC07480068BF
:1009E0000749B0FBF1F007490860084600684FF47A
:1009F0007A7148430449086010BD00003C000020A3
:100A000040420F002C00002030000020002131E087
:100A100032280ADD194A126832235A434FF0E02384
:100A20005A61A0F1320290B206E0144A12684243C1
:100A30004FF0E0235A61002000224FF0E0239A613A
:100A40001A46126942F001021A6100BF4FF0E0221B
:100A5000116901F001021AB101F48032002AF5D0C7
:100A60004FF0E022126922F001024FF0E0231A61F8
:100A700000229A610028CBD170470000300000208E
:100A80000021417241600121017201707047000034
:100A9000064909680140814204D10449091D0860E2
:100AA000086002E00149091D086070471004014018
:100AB000014600204868234A12688243214B1A608D
:100AC0001A1D126882431B1D1A604A7A0AB30A78FB
:100AD0002AB91A1F126802431B1F1A6006E0194A3E
:100AE000121D12680243174B1B1D1A60154A08326B
:100AF00012688243134B08331A601A1D126882432E
:100B00001B1D1A600A7A2AB91A1F126802431B1F9A
:100B10001A6016E00A7A012A07D10A4A0C321268D2
:100B20000243084B0C331A600BE0064A0832126885
:100B30000243044B08331A601A1D126802431B1D3E
:100B40001A6070470004014003200B49C96801F096
:100B5000010109B100200EE00749C968C1F3800115
:100B600009B1012007E00449C968C1F3001109B1C6
:100B7000022000E0032070470020024000B502463A
:100B80000323FFF7E1FF034603E0FFF7DDFF034622
:100B9000521E0BB9002AF8D102B90423184600BD31
:100BA00003200B49C96C01F0010109B100200EE0DE
:100BB0000749C96CC1F3800109B1012007E004496C
:100BC000C96CC1F3001109B1022000E00320704795
:100BD0000020024000B502460323FFF7E1FF034671
:100BE00003E0FFF7DDFF0346521E0BB9002AF8D1E0
:100BF00002B90423184600BD70B504460D4603260D
:100C0000B4F1006F16D31948844213D8184800690C
:100C100020F00100401C1649086125704FF4801037
:100C2000FFF7ACFF06461248006920F001001049AA
:100C3000086119E00D48401C844215D3B4F1016FDE
:100C400012D20B48006D20F00100401C08490865D5
:100C500025704FF48010FFF7BDFF06460448006D75
:100C600020F0010002490865304670BDFFFF07080B
:100C7000002002400648006920F0800080300449CE
:100C800008610846006D20F08000803008657047DC
:100C90000020024030B504460325B4F1006F1BD399
:100CA0003248844218D83248006920F00200801C83
:100CB0002F49086108464461006920F04000403037
:100CC00008614804FFF75AFF05462948006920F0EB
:100CD00002002749086146E02448401C84421BD397
:100CE000B4F1016F18D22248006D20F00200801C80
:100CF0001F49086508464465006D20F040004030FB
:100D000008654804FFF766FF05461948006D20F0A6
:100D100002001749086526E0B4F1046F23D3144894
:100D20009030006820F00200801C1149C1F890004A
:100D30000846C0F894400E489030006820F040000B
:100D400040300B49903108604FF0FF3000F038F828
:100D500005460748D0F8900020F002000449903181
:100D6000086000F007F8284630BD0000FFFF0708C4
:100D7000002002404FF0046000680248006802480A
:100D800000687047001040080020400803200B490D
:100D9000096801F0010109B100200EE00749096866
:100DA000C1F3800109B1012007E004490968C1F3DA
:100DB000001109B1022000E0032070478C2002409E
:100DC00000B502460323FFF7E1FF034603E0FFF708
:100DD000DDFF0346521E0BB9002AF8D102B90423E5
:100DE000184600BD04480549486005484860024867
:100DF0004864034848647047230167450020024067
:100E0000AB89EFCD1CB501211548FFF731FD6846D0
:100E100000F02AF801208DF8070000208DF804006A
:100E200008208DF806008001009004208DF8050050
:100E300069460C4800F076F801208DF80700002084
:100E40008DF804008DF806004FF4806000901820A3
:100E50008DF805006946034800F064F81CBD0000E9
:100E600002001800000801404FF6FF7101600021E8
:100E700081710171042141710121C171704700002C
:100E800010B500228B071C0F0F2303FA04F28B10FE
:100E900033B1012B13D0022B20D0032B3CD12CE0FB
:100EA0001F4B9B6893431E4CA36023469B688C0793
:100EB000240F00FA04F42343194CA3602DE0184BCF
:100EC000DB689343164CE3602346DB688C07240FF2
:100ED00000FA04F42343124CE3601EE0104B1B693C
:100EE00093430F4C236123461B698C07240F00FAA0
:100EF00004F423430A4C23610FE0094B5B699343DD
:100F0000074C636123465B698C07240F00FA04F4E5
:100F10002343034C636100E000BF00BF10BD00002D
:100F200000000140F0B50A461588ABB29579032D53
:100F300001D100241AE0957965B9557905F00F04BF
:100F40005579182D01D1036110E05579282D0DD167
:100F500043610BE0957905F00805167906F0040663
:100F60003543D67906F0030645EA0604DDB2A5B19D
:100F7000002110E001258D401D405DB105688F0006
:100F80000F26BE40B543056005688E0004FA06F6DC
:100F900035430560491C0829ECD3FF2B15DD1B12D6
:100FA000002110E001258D401D405DB145688F0096
:100FB0000F26BE40B543456045688E0004FA06F62C
:100FC00035434560491C0829ECD3F0BD024600209A
:100FD00093680B408B4200D000E001207047000076
:100FE00000F0C2F8FFF724FAFFF7AEFAFFF7ECFAC9
:100FF0001DE00020FFF78EFA0D490978322211FB1F
:1010000002F0FFF703FD0120FFF784FA0849097891
:10101000322211FB02F0FFF7F9FC0220FFF77AFA07
:1010200003490978322211FB02F0FFF7EFFCE0E7F9
:10103000090000202DE9F0470B4614464FF0000C44
:1010400000BF2C4A1268C2F302211D4626460A46FA
:10105000C2F10709B9F1040F02D94FF0040901E008
:10106000C2F10709C84602F10409B9F1070F02D21B
:101070004FF0000901E0A2F103094F464FF00109CA
:1010800009FA08F9A9F1010909EA050909FA07F9B4
:101090004FF0010A0AFA07FAAAF1010A0AEA060A57
:1010A00049EA0A09CC4601466246002904DB1507D5
:1010B0002E0E114D6E5407E015072F0E0D4D0C35F9
:1010C00001F00F06361FAF5500BF014600290DDBAA
:1010D00000BF00BF01F01F050122AA404D09AD006D
:1010E00005F1E025C5F8002100BF00BF00BFBDE845
:1010F000F08700000CED00E000E400E000BF00F02D
:101100000702064B19684FF6FF031940044B0B43C7
:1011100043EA0221014B196000BF70470CED00E06B
:101120000000FA0510B50B46002103E004785C547A
:10113000401C491C9142F9D310BD000070B5054612
:101140000E4600240BE000BF2021064800F013F9F2
:101150000028F9D0034800F001F92855641CB44276
:10116000F1D370BD0038014010B5FFF7E1FB01215C
:101170000846FFF77DFA00BFFFF762FB0028FBD0AF
:1011800001223B210220FFF795FB0020FFF74EFBD9
:1011900001210220FFF76CFA00BF1920FFF72EFB98
:1011A0000128FAD10020FFF731FA0420FFF742FAB4
:1011B0000420FFF735FA0120FFF746FA0220FFF777
:1011C000E3FB00BFFFF7FEFB0228FBD10020FFF787
:1011D0003BFA00F001F810BD2DE9F047002600248D
:1011E00000250027A046A146FFF7ECFB8246BAF196
:1011F000000F06D0BAF1010F15D0BAF1020F46D197
:1012000015E02D48406DC0F3402040B12A48006BE6
:10121000C0F3406018B129482949086002E0294814
:101220002749086037E027482549086033E022480D
:101230004068C0F3004720484068C0F383441E481C
:101240004068C0F341750DB90F2C03D12801401C33
:10125000044400E0A41C27B91B48604318490860F7
:1012600014E015484068C0F3404058B11248406D42
:10127000C0F30136B01C1349B1FBF0F060431049D4
:10128000086003E00F4860430D49086003E00D4823
:101290000B49086000BF00BF07484068C0F303184F
:1012A0000A4810F808900648006820FA09F0044936
:1012B0000860BDE8F087000000100240006CDC020E
:1012C0003C00002000127A0000093D0006150008CD
:1012D000042808D14FF0E021096941F004014FF0E2
:1012E000E022116107E04FF0E021096921F00401DB
:1012F0004FF0E0221161704710B501211448FFF74B
:10130000B7FA00231A464FF41651124800F03CF881
:101310000121104800F09CF801210E4800F093F8DC
:1013200001220D490B4800F073F800220A49891C7C
:10133000084800F06DF80121064800F017F8032076
:10134000FFF7DCFE012200212520FFF773FE10BD10
:101350000E0018000038014005000C0001464868E6
:1013600080B27047C1F3080242607047C26861F3FF
:101370004D32C260704702461068084008B1012033
:1013800070470020FCE700002DE9F04385B00446DB
:101390000F46904699466846FFF79AF918488442E6
:1013A00008D01848844205D01748844202D0174814
:1013B000844201D1029E00E0039E06EB86004000BD
:1013C000B0FBF7F50A20B5FBF0F100FB1150052842
:1013D00003D20A20B5FBF0F503E00A20B5FBF0F0DC
:1013E000451CA06865F30F00A060E06868F30C304E
:1013F000E060206969F30D30206105B0BDE8F0833D
:101400000038014000600140006401400068014074
:1014100030B5012A0BD100EB11431B6801F01F0509
:101420000124AC40234300EB114423600AE000EBAD
:1014300011431B6801F01F050124AC40A34300EBDE
:101440001144236030BDC26861F38202C2607047FC
:10145000C26861F3C302C260704700002DE9F04129
:1014600005460E4617464FF00308FFF7BBFC0D4834
:10147000FFF710FC00240EE0315D2846FFF7BCFBAF
:101480008046B8F1030F04D0FFF7F4FB0020BDE85D
:10149000F0816D1C641CBC42EED3FFF7EBFB012016
:1014A000F5E7000000F80F0870B505460E46002469
:1014B0000BE000BF80210648FFF75DFF0028F9D050
:1014C000295D0348FFF74EFF641CB442F1D370BDA1
:1014D000003801404FF04070E1EE100A7047000004
:1014E00000000000000001020304060708090000D4
:1014F00000000102030400000000010203040204D2
:101500000608020C081000000000000000000102A4
:101510000304060708090000381500080000002031
:1015200040000000C00100087815000840000020BD
:1015300060060000DC01000805000000000000005B
:10154000000100000014014000140140001401409B
:101550000020004000800000050018000500180071
:10156000050018000000000000000000000000005E
:081570000100000000127A00E6
:040000050800018569
:00000001FF
